:02000000852A4F
:080008008B18F4289100910E01
:10001000030E92000B11900B0E281228120E830073
:10002000110E090018188328061A4C280D09960786
:10003000031C3F281608820786120616861206162B
:1000400086120616861206168612061686120616E0
:1000500086120616861206168612061686120616D0
:1000600086120616861206168612061686120616C0
:10007000861206161A3081000C0890004628193E98
:100080008100061686120C089000900A1D3096001A
:10009000120E8300110E09000F099607031C752824
:1000A000160882078616061286160612861606128D
:1000B0008616061286160612861606128616061270
:1000C0008616061286160612861606128616061260
:1000D0008616061286160612861606128616061250
:1000E0001C3081000E0890007C281C308100061214
:1000F00086160E089000900A18141D309600120EF5
:100100008300110E0900061BBB280D099607031C6E
:10011000AE28160882078611061786110617861163
:1001200006178611061786110617861106178611FF
:1001300006178611061786110617861106178611EF
:1001400006178611061786110617861106178611DF
:1001500006171E3081000C089000B5281E3E810055
:10016000061786110C089000900A1D309600120E9A
:100170008300110E09000F099607031CE4281608D6
:10018000820786150613861506138615061386152F
:10019000061386150613861506138615061386158F
:1001A000061386150613861506138615061386157F
:1001B00006138615061386150613861506131B30BF
:1001C00081000E089000EB281B3081000613861575
:1001D0000E089000900A18101D3096009816940A88
:1001E000120E8300110E09000612061386158616DC
:1001F00086148B126430A900831647308100831265
:1002000081010B1D01290B11A90B00298B10852AD7
:10021000A201A3010830A6001E0803109F0C0318BA
:10022000A207A20CA30CA60B0E2900341E21200845
:10023000A1070318A50A2408A5070034A009A00AED
:100240000319A403A40900340310A30C0310A20C87
:100250000318A3170310A30C0310A20C0318A31771
:100260000310A30C0310A20C0318A3170310A30C74
:100270000310A20C0318A31701302202031C432908
:100280006430A300492964302302031C49296430E7
:10029000A30000341D08A23C03184F2952299900DD
:1002A00098105629A2301D02990098149A01A701AE
:1002B00019089E0028309F0008212421981C6229DB
:1002C000A309A30A23089A070318A70A00309A1B58
:1002D000FF30A707190803198329981872290130DC
:1002E0009B07742901309B029B1B7D299C301B07B7
:1002F000031C832964309B0083299C301B02031854
:1003000083299C309B001B089A070318A70A00301A
:100310009B1B0009A7071908981C91299909190A1C
:100320009909A10000309818FF30A5001C08181E7C
:100330009B299C091C0AA0000030181AFF30A40059
:100340001621A51BA429A9299815A109210A9C00F9
:10035000AC29981121089C001C089E0001309F00C8
:1003600008212421981DB629A309A30A23080319EB
:10037000C9299C0000309819FF30A5001C08A10075
:100380001A08A0002708A400172121089A002508B0
:10039000A70019089C001812981818160C08A40039
:1003A0000D08A0002708A5001A08A10017210108C0
:1003B000C83C031CD7292508243C2508031C2430ED
:1003C000031901308C00A40021088D002108A00031
:1003D0002730A5001030A100162125088E00210825
:1003E0008F000800861B132AA80AA81F142A0516C6
:1003F0008B12861006110612061386158616861FA6
:10040000FF296430A90081010B1D042A0B11A90BDF
:10041000032A0B108B1563008B110B10861F0E2AFD
:1004200005128B160615A8010800893088000108FE
:10043000D03C031C172A081508191C2A09089D001E
:100440000800813088000108D03C031C232A0815CD
:100450000819282A0908B83C031C3F2A930A931F4D
:100460000800061206138615861605168B1206114D
:1004700086140B108B1563008B110B10852A9301CA
:100480000800993088000108D03C031C432A081555
:100490000819482A0908A43C0318652A950A951FDB
:1004A000662A861406110612061386158616323041
:1004B000A90047308316810083128B1281010B1D26
:1004C0005F2A0B11A90B5E2A852A95010908893C30
:1004D0000318832A14080319970A171E08008614A4
:1004E000061106120613861586163230A90047300B
:1004F0008316810083128B1281010B1D7D2A0B1143
:10050000A90B7C2A852A9701080006120613861576
:1005100086161D30960025308E0000308F00023088
:100520008C0010308D0083160F30850081308600DE
:10053000003088004F30810083128101B0308B0081
:100540000615861005126400F221981EA32A98123F
:0A05500015224A2121224122A32A8C
:00000001FF
