:02000000772A5D
:080008008B18F0289100910E05
:10001000030E92000B11900B0E281228120E830073
:10002000110E090018188128061A4B280D09960789
:10003000031C3F2816088207061606160616061623
:1000400006160616061606160616061606160616D0
:1000500006160616061606160616061606160616C0
:1000600006160616061606160616061606160616B0
:10007000061606161A3081000C0890004528193E15
:10008000810006160C089000900A1D309600120E92
:100090008300110E09000F099607031C7428160827
:1000A000820706120612061206120612061206121F
:1000B0000612061206120612061206120612061280
:1000C0000612061206120612061206120612061270
:1000D00006120612061206120612061206121C302C
:1000E00081000E0890007A281C30810006120E084C
:1000F0009000900A18141D309600120E8300110E05
:100100000900861AB8280D099607031CAC281608A2
:100110008207861686168616861686168616861612
:1001200086168616861686168616861686168616EF
:1001300086168616861686168616861686168616DF
:1001400086168616861686168616861686161E301D
:1001500081000C089000B2281E3E810086160C0813
:100160009000900A1D309600120E8300110E0900B7
:100170000F099607031CE1281608820786128612CB
:1001800086128612861286128612861286128612AF
:10019000861286128612861286128612861286129F
:1001A000861286128612861286128612861286128F
:1001B00086128612861286121B3081000E0890006D
:1001C000E7281B30810086120E089000900A181054
:1001D0001D3096009816940A120E8300110E090025
:1001E0000612861286148B126430A90083164730DB
:1001F0008100831281010B1DFB280B11A90BFA282A
:100200008B10772AA201A3010830A6001E08031054
:100210009F0C0318A207A20CA30CA60B08290034FC
:1002200018212008A1070318A50A2408A5070034EF
:10023000A009A00A0319A403A40900340310A30C05
:100240000310A20C0318A3170310A30C0310A20C95
:100250000318A3170310A30C0310A20C0318A31771
:100260000310A30C0310A20C0318A31701302202E1
:10027000031C3D296430A300432964302302031C7E
:1002800043296430A30000341D08A23C0318492907
:100290004C29990098105029A2301D0299009814F9
:1002A0009A01A70119089E0028309F0002211E21F3
:1002B000981C5C29A309A30A23089A070318A70A14
:1002C00000309A1BFF30A707190803197D299818D9
:1002D0006C2901309B076E2901309B029B1B7729FB
:1002E0009C301B07031C7D2964309B007D299C30BA
:1002F0001B0203187D299C309B001B089A070318DA
:10030000A70A00309B1B0009A7071908981C8B2916
:100310009909190A9909A10000309818FF30A50021
:100320001C08181E95299C091C0AA0000030181AE8
:10033000FF30A4001021A51B9E29A3299815A1090F
:10034000210A9C00A629981121089C001C089E00E7
:1003500001309F0002211E21981DB029A309A30A84
:1003600023080319C3299C0000309819FF30A50009
:100370001C08A1001A08A0002708A40011212108C8
:100380009A002508A70019089C001812981818163A
:100390000C08A4000D08A0002708A5001A08A10059
:1003A00011210108C83C031CD1292508243C25083B
:1003B000031C2430031901308C00A40021088D0097
:1003C0002108A0002730A5001030A1001021250829
:1003D0008E0021088F000800861B0B2AA80AA81F80
:1003E0000C2A05168B128610061106128612861F1D
:1003F000F7296430A90081010B1DFC290B11A90B01
:10040000FB290B108B1563008B110B10861F062A1E
:1004100005128B160615A801080089309F000108F7
:10042000D03C031C0F2A1F151F19142A1E089D00FB
:10043000080081309F000108D03C031C1B2A1F15B7
:100440001F19202A1E08B83C031C352A930A931F43
:1004500008000612861205168B12061186140B1060
:100460008B1563008B110B10772A930108009930CC
:100470009F000108D03C031C392A1F151F193E2A72
:100480001E08A43C0318592A950A951F5A2A861457
:100490000611061286123230A900473083168100F9
:1004A00083128B1281010B1D532A0B11A90B522AA7
:1004B000772A95011E08893C0318752A1408031928
:1004C000970A171E0800861406110612861232308B
:1004D000A90047308316810083128B1281010B1D06
:1004E0006F2A0B11A90B6E2A772A970108001D307D
:1004F00096000B308E0071308F001B308C009F30C7
:100500008D0083160F30850081308600061286121A
:1005100000309F004F30810083128101B0308B008A
:100520000615861005126400EC21981E932A981275
:0605300019223722932A74
:00000001FF
