:02000000702965
:08000800011806288D008D0E81
:10001000030E8E008B1C0E280B1AEC280B11061BEE
:1000200083280F0990009107031C3A2811088207C2
:1000300006170617061706170617061706170617D8
:1000400006170617061706170617061706170617C8
:1000500006170617061706170617061706170617B8
:10006000061706170617061706130C1510091A3E71
:100070008100AD28143E810006171C3091000C1D34
:1000800074280C11061A9401940A9C0A9C1F4B2890
:10009000920A9B0A9C018C1978280C12051683166B
:1000A000113086008312861406108B100B16930BEA
:1000B00074280C1C68288C1C622886161B30930040
:1000C0008C10742886120C3093008C140C10742839
:1000D0008C1C6F2886171B3093008C107428861395
:1000E0000C3093008C140C140E0E83000D0E0900BE
:1000F000861286130512861083160B1210308600A6
:1001000083120614742810099107031CAB281108E8
:1001100082070613061306130613061306130613A7
:100120000613061306130613061306130613061307
:1001300006130613061306130613061306130613F7
:10014000061306130613061306170F099000193E2F
:1001500081000C153C28143E810006131D309100CF
:100160000C150C1DE6280C11061A9401940A9C0A21
:100170009C1FBD289B0A920A9C018C1978280C129E
:1001800005168316113086008312861406108B1014
:100190000B16930BE6280C1CDA288C1CD428861628
:1001A0001B3093008C10E62886120C3093008C14C0
:1001B0000C10E6288C1CE12886171B3093008C104D
:1001C000E62886130C3093008C140C141D3091001B
:1001D0000E0E83000D0E09008B108C158316103047
:1001E00086000B128312861006140C160E0E830066
:1001F0000D0E0900820715341434123411340F34F3
:100200000D340C340A340834073405340434023411
:100210000034FF34FD34FB34FA34F834F734F53469
:10022000F334F234F034EE34ED34EB34EA34E834C1
:10023000E634E534E33408309F00A00C031C0611BB
:1002400003180615861186159F0B1D2908008207C5
:1002500003349F3425340D349934493441341F34E8
:10026000013409341134C134633485346134713458
:1002700000302721A0001B211B210F30180527214A
:10028000A0001B21980E0F3018052721A0001B216C
:1002900008009701980199018800640064006400D7
:1002A000640001080108010801086400640064009A
:1002B0006400081508195A29090899070318980AAB
:1002C000970F51290800941F080094019E0A1E1ED2
:1002D00008009E018C196E298C1508008C110800ED
:1002E0008316033085001130860002308800C83044
:1002F000810083120030860005151D309100B0305A
:100300008B008C0164000C1E8A29921E8929851598
:100310008A29851163218130492118089A006321B7
:1003200089301A02031CA229B3301A020318DC29EF
:1003300097301A02031CB129A8301A02031CCD29D8
:10034000BF2982291D08893A031DAD299B1F8229D7
:100350008C15051185159B01822989309D009B0113
:1003600082291D08973A031DBB299B1C82298515EC
:1003700005159B01822997309D009B0182291D084C
:10038000A63A031DC9299B1C8229051585119B01CD
:1003900082291D08A6009B0182291D08A83A031D79
:1003A000D8299B1F82298F019B0185110515822960
:1003B000A8309D009B0182291D08B33A031DED2939
:1003C0009B1F8229051585110F0A0F0A0F0A0F0AB4
:1003D0000F0A031D8F009B018229B3309D009B01F2
:0203E000822970
:00000001FF
