:02000000712964
:08000800011806288D008D0E81
:10001000030E8E008B1C0E280B1AED280B11061BED
:1000200084280F0990009107031C3A2811088207C1
:1000300006170617061706170617061706170617D8
:1000400006170617061706170617061706170617C8
:1000500006170617061706170617061706170617B8
:10006000061706170617061706130C1510091A3E71
:100070008100AE28143E810006171C3091000C1D33
:1000800074280C11061A9401940A9C0A9C1F4B2890
:10009000920A9B0A9C018C1978280C1286158316EB
:1000A000113086008312061005158B100B16930B6A
:1000B00074280C1C68288C1C622886161B30930040
:1000C0008C10742886120C3093008C140C10742839
:1000D0008C1C6F2886171B3093008C107428861395
:1000E0000C3093008C140C140E0E83000D0E0900BE
:1000F000861286130C1E8611051183160B12103002
:10010000860083120614742810099107031CAC287A
:1001100011088207061306130613061306130613A7
:100120000613061306130613061306130613061307
:1001300006130613061306130613061306130613F7
:100140000613061306130613061306170F0990006D
:10015000193E81000C153C28143E810006131D3009
:1001600091000C150C1DE7280C11061A9401940A35
:100170009C0A9C1FBE289B0A920A9C018C19782815
:100180000C12861583161130860083120610051591
:100190008B100B16930BE7280C1CDB288C1CD52826
:1001A00086161B3093008C10E72886120C309300C3
:1001B0008C140C10E7288C1CE22886171B30930047
:1001C0008C10E72886130C3093008C140C141D300F
:1001D00091000E0E83000D0E09008B108C158316F6
:1001E000103086000B128312051106140C160E0E29
:1001F00083000D0E090082071534143412341134B3
:100200000F340D340C340A34083407340534043404
:1002100002340034FF34FD34FB34FA34F834F7345C
:10022000F534F334F234F034EE34ED34EB34EA34B4
:10023000E834E634E534E33408309F00A00C031CB6
:10024000061103180615861186159F0B1E29080036
:10025000820703349F3425340D34993449344134B2
:100260001F34013409341134C134633485346134AA
:10027000713400302821A0001C211C210F301805EA
:100280002821A0001C21980E0F3018052821A0005D
:100290001C210800970198019901880064006400FE
:1002A000640064000108010801080108640064009A
:1002B00064006400081508195B29090899070318E8
:1002C000980A970F52290800941F080094019E0A6B
:1002D0001E1E08009E018C196F298C1508008C11B8
:1002E0000800831603308500113086000230880034
:1002F000C83081008312003086008614FF308F00E2
:100300001D309100B0308B008C0164000C1E8D29D3
:10031000921E8C2986158D298611642181304A21EF
:1003200018089A0064218C301A02031CA529B730E2
:100330001A020318E0299A301A02031CB429AE30BD
:100340001A02031CD029C22985291D088C3A031DD5
:10035000B0299B1F85298C15861006159B018529C0
:100360008C309D009B0185291D089A3A031DBE29EA
:100370009B1C8529061586149B0185299A309D00B2
:100380009B0185291D08A93A031DCC299B1C8529A1
:10039000861406119B0185291D08A9009B0185294A
:1003A0001D08AE3A031DDC299B1F8529FF308F00F5
:1003B0009B01061186148529AE309D009B0185297D
:1003C0001D08B73A031DEE299B1F852986140611C7
:1003D0000F08031D0F038F009B018529B7309D0077
:0403E0009B018529CF
:00000001FF
