:020000005D2978
:08000800011806288D008D0E81
:10001000030E8E000B11051987280F099000910718
:10002000031C362811088207051505150515051549
:1000300005150515051505150515051505150515F0
:1000400005150515051505150515051505150515E0
:1000500005150515051505150515051505150515D0
:1000600005110C1510091A3E8100B128143E8100BB
:1000700005151C3091000C1D75280C118618940173
:10008000940A9C0A9C1F4728920A9B0A9C018C197F
:100090007B280C1286168316033086008312061006
:1000A0000615061C572821197928A10A5828A101EC
:1000B000930B75280C1C69288C1C632806171B30B1
:1000C00093008C10752806130C3093008C140C10C0
:1000D00075288C1C702886171B3093008C1075288F
:1000E00086130C3093008C140C140E0E83000D0E2E
:1000F00009000C168C15061386130C1E86120611A9
:1001000083160B120230860083120614752810091C
:100110009107031CAF28110882070511051105116D
:10012000051105110511051105110511051105111F
:10013000051105110511051105110511051105110F
:1001400005110511051105110511051105110511FF
:1001500005150F099000193E81000C153828143E32
:10016000810005111D3091000C150C1DEF280C119C
:1001700086189401940A9C0A9C1FC1289B0A920A23
:100180009C018C197B280C1286168316033086007E
:10019000831206100615061CD12821197928A10AF8
:1001A000D228A101930BEF280C1CE3288C1CDD281E
:1001B00006171B3093008C10EF2806130C309300A9
:1001C0008C140C10EF288C1CEA2886171B30930027
:1001D0008C10EF2886130C3093008C140C141D30F7
:1001E00091000E0E83000D0E09008B108C158316E6
:1001F000023086000B128312061106140C168C12A4
:100200000E0E83000D0E09008207153414341234CB
:1002100011340F340D340C340A34083407340534E7
:10022000043402340034FF34FD34FB34FA34F8343F
:10023000F734F534F334F234F034EE34ED34EB3497
:10024000EA34E834E634E534E334820703349F3497
:1002500025340D349934493441341F340134093480
:100260001134C13463348534613471349701980199
:1002700099018800640064006400640001080108BA
:10028000010801086400640064006400081508198E
:100290004729090899070318980A970F3E2908006B
:1002A000941F080094019E0A1E1E08009E018C19CE
:1002B0005B298C1508008C1108008316033085001B
:1002C0000330860002308800C8308100831200307D
:1002D00086000616FF308F001D309100A0308B0085
:1002E0008C0164000C1E7929921E782986167929C2
:1002F000861250218130362118089A0050218C3006
:100300001A02031C9129B7301A020318CC299A301B
:100310001A02031CA029AE301A02031CBC29AE2904
:1003200071291D088C3A031D9C299B1F71298C156E
:10033000061286159B0171298C309D009B01712945
:100340001D089A3A031DAA299B1C712986150616B9
:100350009B0171299A309D009B0171291D08A93AC2
:10036000031DB8299B1C7129061686119B01712952
:100370001D08A9009B0171291D08AE3A031DC8295B
:100380009B1F7129FF308F009B0186110616712972
:10039000AE309D009B0171291D08B73A031DDA2973
:1003A0009B1F7129061686110F08031D0F038F006E
:0C03B0009B017129B7309D009B01712951
:00000001FF
